:020000040800F2
:1000000070050020C5000008C50F00087D0F00081E
:1000100000000000000000000000000000000000E0
:10002000000000000000000000000000C5110008F2
:100030000000000000000000C70F0008C711000802
:10004000D700000800000000D7000008D700000813
:10005000D7000008D7000008D7000008D700000824
:1000600000000000D7000008F9010008D7000008D0
:10007000D7000008D7000008D700000800000000E3
:10008000D70000080000000000000000D7000008B2
:1000900000000000D7000008D7000008D7000008C3
:1000A00000000000D700000800000000D700000892
:1000B0000348854600F08EF8004800470D130008FD
:1000C000700500200448804704480047FEE7FEE72B
:1000D000FEE7FEE7FEE7FEE715120008B1000008A4
:1000E00030B50B46014600202022012409E00D46D0
:1000F000D5409D4205D31D469540491B2546954058
:1001000040191546521E002DF1DC30BDF0B51FB46C
:100110000646002082B005464024019100901BE075
:10012000019922460F46304600F020F8049A059BBC
:10013000801A994110D310461946224600F039F82A
:10014000361A8F410197224601200021009F00F0BE
:1001500030F838184D4100902046641E0028DFDC3E
:10016000019B00982946324607B0F0BD10B5202A01
:1001700004DB0846203AD040002110BD0B46D34096
:10018000D0402024A21A91400843194610BDD2B293
:1001900001E00270401C491EFBD270470022F6E7C6
:1001A00010B513460A4604461946FFF7F0FF2046ED
:1001B00010BD10B5202A04DB0146203A91400020F2
:1001C00010BD914020239C1A0346E3401943904000
:1001D00010BD0000064C0125064E05E0E36807CC83
:1001E0002B430C3C98471034B442F7D3FFF764FF1D
:1001F000101400083014000810B5024800F04EF842
:1002000010BD00002801002010B504460068054913
:1002100040181421FFF764FF800020640248E06367
:1002200010BD0000F8FFFDBF0000024030B5056CB6
:100230000124AC40C56B6C60046863604368102B9C
:10024000036803D099600068C26030BD9A6000689E
:10025000C16030BD704730B5014620314B78002277
:10026000022B04D0042383630A70012030BD03688D
:100270001C680E25AC431C6003681C68640864009D
:100280001C600123056C1C46C06BAC4044604B7085
:100290000A70002030BD203040787047F0B4C16B48
:1002A0000D6801680C680422066C1346B3402B42AB
:1002B0000DD063070BD50B689B0602D40B689343E4
:1002C0000B60016C8A40C16B4A60C16A19E0022769
:1002D000B74002462F4001232032002F15D0A70738
:1002E00013D50C68A40604D40C680A25AC430C6032
:1002F0005370036C02219940C36B59600021117047
:10030000816A002916D0F0BC08470827B7402F4261
:1003100010D024070ED50C680E25AC430C60046C7D
:100320001946A140C46B6160836353700021117052
:10033000016BE6E7F0BC704770B5040021D00221E4
:100340002046203005464170226811680E48A36897
:100350000140606826691843E368334318436369C2
:100360001843A3691843E369184308431060204603
:10037000FFF74AFF0021A163012068702970084639
:1003800070BD012070BD00000FC0FFFFF8B504462E
:100390008C46203001780025012909D001260670FD
:1003A00041780027012905D0077002252846F8BDAD
:1003B0000220F8BD02214170A76320680168490846
:1003C0004900016061462046FFF730FFE06A0028DF
:1003D0002068016802D00E22114306E00A22114370
:1003E000016020680168042291430160206801686F
:1003F00031430160DAE7000070B5044600F0B2F85E
:100400000546601C02D004480078241800F0AAF8C1
:10041000401BA042FAD370BD18000020F8B500239D
:100420008DE001249C40A44622407DD04C68022CE3
:1004300001D0122C0CD1DC08A40027183C6A5D07FF
:10044000ED0E0F26AE40B4430E69AE4026433E6229
:1004500005685E000324B4400F79A543BF07BF0FB2
:10046000B7402F4307604D68012D05D0022D03D002
:10047000112D01D0122D0ED18568CF68A543B7404C
:100480002F43876047686546AF430D79ED06ED0F52
:100490009D403D434560C568A5438C68B4402C43EE
:1004A000C4604C68E40049D5284CA5690126354351
:1004B000A561A4699D0834400094254CAD002F1916
:1004C000BC689D072E0F0F25B540AC430925ED06EE
:1004D000A84201D100250FE01E4DA84201D10125FF
:1004E0000AE01D4DA84201D1022505E01B4DA8429E
:1004F00001D1032500E00525B5402543BD60184C1A
:1005000025684E689543F60300D515432560656858
:100510004E689543B60300D515436560A5684E68DF
:100520009543F60202D500E008E01543A560E568B2
:100530004E689543B60200D51543E5605B1C0A681A
:100540001446DC4000D06CE7F8BD0000001002400B
:10055000000001400004004800080048000C00486A
:100560000004014001488068704700001800002026
:10057000024881680278891881607047180000205D
:1005800010B506480168102211430160002000F0F8
:1005900007F800F027F8002010BD000000200240FE
:1005A00070B504460D4D7D202978C000FFF798FDF9
:1005B00001460B480068FFF793FD00F0C7FC0028D8
:1005C00009D1042C07D200222146401E00F02AF84F
:1005D00000206C6070BD012070BD0000180000207C
:1005E0002400002008B50848816901221143816177
:1005F000816911400091C26901040A43C261C06966
:100600000840009008BD000000100240002805DBF3
:10061000C106C90E012088400149086070470000EA
:1006200000E100E010B500F03FFE10BDF8B50F4648
:10063000060059D03A4D2868C007C00FB84209D209
:10064000286840084000384328602868C007C00F69
:10065000B84249D13068334C81070CD5400704D5E6
:10066000606807210902084360606068F0218843E0
:10067000B168084360603078C00726D070680128F0
:100680000ED0216802280ED0890700292CDA616873
:100690008908890001436160FFF764FF00900DE065
:1006A00021688903F1E78901EFE7FFF75BFF009914
:1006B000411A1D48814201D90320F8BD60680C2110
:1006C0000840716889008842EFD12868C007C00FD0
:1006D000B8420BD928684008400038432860286891
:1006E000C007C00FB84201D00120F8BD30784007E4
:1006F00006D56068072109028843F16808436060F5
:1007000000F018F86168094A0906090F515CC840F1
:10071000074908600020FFF743FF0020F8BD0000F4
:10072000002002400010024088130000001400085E
:100730002400002010B514A30FCB88B06C460FC462
:1007400015A30FCB0FC4184A51680C200B46034069
:100750001648042B16D0082B14D18B021B0F6C46A5
:10076000E45CD26A04AB1207120F9A5CC90305D588
:1007700000231946FFF7CAFC214601E020460C4938
:1007800000F07AFD08B010BD020304050607080951
:100790000A0B0C0D0E0F10100102030405060708CA
:1007A000090A0B0C0D0E0F100010024000127A0007
:1007B00000093D00FEB5040070D02078DC4DC00774
:1007C0004AD068680007800F012807D068680007D2
:1007D000800F022809D16868C00306D52868800305
:1007E0003AD560680028E7D036E06168012914D066
:1007F00001208004002901D0052914D02A68012194
:1008000009048A432A6029688143296060680028B6
:1008100016D0FFF7A7FE06460EE02868012109045E
:1008200008432860F2E7296801432960F5E7FFF7EC
:1008300099FE801B64286ED828688003F7D50BE0EA
:10084000FFF790FE064604E0FFF78CFE801B64284D
:10085000F1D828688003F7D4207801268007002883
:100860003CDA68680007800F07D068680007800FCF
:10087000022809D16868C00306D42868800716D505
:10088000E06801280AD112E0E0680028286816D044
:1008900030432860FFF766FE074605E043E1FFF7B7
:1008A00061FEC01B0228C6D828688007F7D52868D3
:1008B000F82188432169C900084328600EE04008F8
:1008C00040002860FFF74EFE074604E0FFF74AFEAF
:1008D000C01B0228AFD828688007F7D4207800070B
:1008E00022D5E0690028686A0ED030436862FFF7BD
:1008F00039FE074604E0FFF735FEC01B02289AD8F0
:10090000686A8007F7D50FE0400840006862FFF78B
:1009100029FE074605E09DE0FFF724FEC01B0228E4
:1009200089D8686A8007F7D4207804274007002810
:1009300060DA00200190E869C00008D4E969B806CF
:100940000143E961E9690140012000910190794882
:100950000168C90511D40168821511430160FFF7D0
:1009600001FE009005E0FFF7FDFD0099401A6428A4
:1009700070D870480068C005F5D5A06801280AD075
:10098000002801D0052810D0286A400840002862BD
:10099000286AB84301E0286A30432862A06800282A
:1009A00012D0FFF7DFFD00900AE0286A3843286282
:1009B000F1E7FFF7D7FD0099411A5F48814249D816
:1009C000286A8007F5D50DE0FFF7CCFD009006E022
:1009D000FFF7C8FD0099411A574881423AD8286A62
:1009E0008007F5D40198002804D0E96901200007A8
:1009F0008143E9612078C00635D5606901280CD0B3
:100A0000401D686B23D038436863686B4008400022
:100A10006863FFF7A7FD064622E0686B384368630A
:100A2000686B30436863FFF79DFD064604E0FFF7FF
:100A300099FD801B02285BD8686B8007F7D5686B2F
:100A4000F8218843A169C900084368630BE0B843F3
:100A50006863F4E74CE0FFF785FD801B022847D868
:100A6000686B8007F7D4206A00285ED069680907A0
:100A7000890F022942D0012636060228286805D0AF
:100A8000B0432860FFF76EFD044633E0B0432860B2
:100A9000FFF768FD074604E0FFF764FDC01B02286E
:100AA00026D828688001F7D4E86AE16A00090001C5
:100AB0000843E862616AA06A084369683D2212043B
:100AC000914308436860286830432860FFF74AFD77
:100AD000044604E0FFF746FD001B022808D82868FA
:100AE0008001F7D521E0FFF73DFD001B022801D969
:100AF0000320FEBD28688001F5D416E00128F8D057
:100B00006868E96A01221204636A02409A420AD1C3
:100B10000907E26A090F914205D10F2189040840B3
:100B2000A16A884201D00120FEBD0020FEBD000068
:100B300000100240007000408813000070B50446A9
:100B4000406D00251026002807D0FFF784FB002801
:100B500003D0206E304320660125A06D002807D009
:100B6000FFF779FB002803D0206E30432066012573
:100B7000206841688908890041600120403460771D
:100B8000284670BD7047F8B5040007D000262546FA
:100B90004035A662687F002802D005E00120F8BD3C
:100BA0002E77204600F04CF802236B77206801680E
:100BB0004022914301600721E0680902884201D97F
:100BC000002201E0012212030F273F02B84202D0A7
:100BD000884200D0A662276B002F05D1884201D938
:100BE000236301E001202063A16860686369084312
:100BF0002169194308430123A1695B021940084395
:100C0000E1690843216A0843A16A08432168086032
:100C1000616B606AA36908431B0C0427E1683B40D1
:100C2000194308432168104348602068C1697A026B
:100C30009143C1612666012068770020F8BD00005D
:100C400070B586B0064614216846FFF7A7FA1D491D
:100C50003068884234D11C498A69801402438A6111
:100C60008A69024005924A69400102434A61496922
:100C7000002501400591A020009002200190032052
:100C800003900920029569460495C006FFF7C6FB4C
:100C90000F4C0E4820601020A56060602561802008
:100CA0006561E0602020A06103200003E061204630
:100CB000FFF742FB002801D0FFF7CCFA74656662AB
:100CC00006B070BD0030014000100240300002400C
:100CD00028010020F8B5054604464035287F002647
:100CE000012806D001272F77687F012803D002262C
:100CF00069E00220F8BD00294CD0002A4AD0032028
:100D0000687700202066A163A287E28720642065BF
:100D1000E064A880E8800123DB03A26859109A42AE
:100D200003D1226813680B431360636D284ADA62AB
:100D3000636D284A9A62636D274A1A63626D506335
:100D4000206842688A4342600722E06812029042AB
:100D500010D8606D01224069920290420AD1E08F62
:100D6000C0072068426817D00A434260E08F4008FD
:100D7000401CE087E38F2268A16B0C32606DFFF7A7
:100D800005FB00280DD0206E1021084320660126A7
:100D90006F7718E0012616E08A434260E08F400832
:100DA000E7E720680168490603D40168402211433F
:100DB0000160206841682022114341602068416839
:100DC000022211434160002028773046F8BD000020
:100DD000EB0F0008F50F0008C90F0008F8B5284A06
:100DE00001465068814204D15188232902D9FFF776
:100DF000A5FEF8BD234B4A008A18D2185678182051
:100E0000072401221F4669371546A5402E4201D10D
:100E1000C02500E0F8253D54401C641E64B2C0B2F9
:100E2000002CF1DA07244D004D195E5D1546A540F2
:100E30002E4201D1C02500E0F825124F641E69370B
:100E40003D54401C64B2C0B2002CEFDA4D004D1985
:100E5000EB180C4D07249B78C02769351646A64031
:100E6000334201D12F5401E0F8262E54401C641E59
:100E700064B2C0B2002CF1DA0148491C4180F8BDCF
:100E80000000002028000020F8B52E4B01465868CD
:100E9000814209D1197801222B4D002905D05988AA
:100EA00023290BD9FFF74AFEF8BD0020014629543B
:100EB000401CC0B21828FAD31A70F8BD4B00CE18E7
:100EC000214B00200724693BF61876782F461546FB
:100ED000A5402E4201D1C02500E0F8253D54401C1C
:100EE000641E64B2C0B2002CF1DA07244D004D1923
:100EF0005E5D1546A5402E4201D1C02500E0F825D3
:100F0000114F641E3D54401C64B2C0B2002CF0DA94
:100F10004D004D19EB1807249B780B4DC027164642
:100F2000A640334201D12F5401E0F8262E54401C34
:100F3000641E64B2C0B2002CF1DA0248491C418040
:100F4000F8BD00000000002091000020094910B504
:100F5000401E884201D9012010BD074C6061032169
:100F6000081F00F0A1F90020A061072020610020E7
:100F700010BD0000FFFFFF0000E000E0FEE7000002
:100F800010B50F480D490160FF2105314160002176
:100F90000722816012020161C26001224161520296
:100FA0008261016210224162C26181620722016393
:100FB000C2624163FFF7E7FD10BD00000030014051
:100FC000C40000207047704710B5406A01684A6845
:100FD000920892004A60016E1022114301660122BC
:100FE0005D210A54FFF7CEFD10BD10B5406AFFF732
:100FF0004BFF10BD38B50546446AFFF7B3FA024609
:1010000028680068800625D4206841682025A94307
:101010004160206841680223994341606421204671
:1010200000F01CF8002802D0206E28432066A0683B
:101030000021002803D12068C26880680090E18701
:1010400001215D200155206E002803D02046FFF7C6
:1010500099FD38BD2046FFF7C1FE38BDF8B50F46F3
:101060000B4615460092032104460022C90200F0F7
:101070001BF82026002812D13B4600228021204662
:10108000009500F059F8002809D103213B460022C1
:1010900049022046009500F007F8002803D0206E92
:1010A000304320660320F8BDF8B51D4617460E46AE
:1010B000044610E0032149028E4202D1002F00D1E4
:1010C000007B681C07D0FFF74DFA0699401AA8422A
:1010D00008D2002D06D0206881683140B942E9D19C
:1010E0000020F8BD20684168E022914341606068BB
:1010F000C11FFD390CD10121A068C903884202D06B
:101100004911884204D1206801684022914301605E
:101110000120A16A4003814207D121680A68824305
:101120000A6021680A6802430A600120403460773F
:10113000002020770320F8BDF8B51D4617460E465F
:10114000044609E0681C07D0FFF70CFA0699401A1C
:10115000A8420BD2002D09D0206881683046884310
:101160002ED00020B842EDD10020F8BD20684168A3
:10117000E022914341606068C11FFD390CD101211B
:10118000A068C903884202D04911884204D120686E
:1011900001684022914301600120A16A400381421D
:1011A00007D121680A6882430A6021680A680243FD
:1011B0000A60012040346077002020770320F8BDCA
:1011C0000120CFE7704710B5FFF7D2F910BD30B559
:1011D00091B030216846FEF7E1FF00240120009025
:1011E00001900E94000409900F9400010D940225C3
:1011F0000A900C9408950B946846FFF7DBFA0720D9
:101200000C900E9401210D950F940CA8FFF70EFA87
:1012100011B030BD704700000149486070470000C0
:101220000000002010B500210A4C0B4A618021709B
:1012300008461154401CC0B23028FAD33022064967
:101240006068FFF747FD6068406DFFF724F80128EC
:10125000F9D110BD000000209100002010B5232816
:1012600006D24400041903480155201842708370C7
:1012700010BD000028000020F8B5040C8BB22646F3
:1012800082B25E430D0C1046370C58433604801969
:101290000021794116466E43370C36048019794196
:1012A00026466E438919F8BD8307FF22DB0E9A405C
:1012B0008907090E9940002808DB830809489B002C
:1012C0001B18186890430843186070470007000F08
:1012D0000838830804489B001B18D86990430843CA
:1012E000D861704700E400E000ED00E002E008C8CB
:1012F000121F08C1002AFAD170477047002001E090
:1013000001C1121F002AFBD17047000008B5FFF78A
:1013100037F9FFF75CFF37484269012189050A4325
:10132000426142690A400092426949110A4342619E
:1013300042690A40009241690122114341614069BA
:1013400010400022009011460A20FFF76BF90A2096
:10135000FFF75CF9FFF714FE2748FFF75DFF274D05
:10136000102400270026F019102800DB1038201A5E
:101370002A5C0023194630B2FFF770FFFFF752FFD7
:10138000761C102EEFDB1420FFF736F87F1C102F91
:10139000E8DB00260027B819102800DB1038201AD7
:1013A000295C00231A4638B2FFF758FFFFF73AFFCF
:1013B0007F1C102FEFDB1420FFF71EF8761C102E79
:1013C000E8DB00270026F019102800DB1038201A6F
:1013D0002B5C0022114630B2FFF740FFFFF722FFDF
:1013E000761C102EEFDB1420FFF706F87F1C102F61
:1013F000E8DBB6E700100240C4000020080000202F
:1014000000000000000000000102030406070809B4
:10141000301400080000002028000000EC12000832
:10142000581400082800002048050000FC1200089D
:101430000000000000000000050A0F1419232D37DA
:10144000414B555F69737D8201000000040000007C
:081450000000000000127A0008
:04000005080000B13E
:00000001FF
